{
  "contractName": "CloudCompute",
  "abi": [
    {
      "constant": true,
      "inputs": [
        {
          "name": "",
          "type": "uint256"
        }
      ],
      "name": "vmInstances",
      "outputs": [
        {
          "name": "vmType",
          "type": "uint256"
        },
        {
          "name": "vmName",
          "type": "string"
        },
        {
          "name": "vmToken",
          "type": "string"
        },
        {
          "name": "vmUserAddr",
          "type": "address"
        },
        {
          "name": "vmRunnerAddr",
          "type": "address"
        },
        {
          "name": "hadRun",
          "type": "bool"
        },
        {
          "name": "ipAddr",
          "type": "string"
        },
        {
          "name": "core",
          "type": "uint256"
        },
        {
          "name": "ramsize",
          "type": "uint256"
        },
        {
          "name": "vramsize",
          "type": "uint256"
        },
        {
          "name": "vpower",
          "type": "uint256"
        }
      ],
      "payable": false,
      "stateMutability": "view",
      "type": "function",
      "signature": "0x2a6701b2"
    },
    {
      "inputs": [],
      "payable": false,
      "stateMutability": "nonpayable",
      "type": "constructor",
      "signature": "constructor"
    },
    {
      "constant": false,
      "inputs": [
        {
          "name": "itype",
          "type": "uint256"
        },
        {
          "name": "iName",
          "type": "string"
        },
        {
          "name": "icore",
          "type": "uint256"
        },
        {
          "name": "iramsize",
          "type": "uint256"
        },
        {
          "name": "ivramsize",
          "type": "uint256"
        },
        {
          "name": "ivpower",
          "type": "uint256"
        }
      ],
      "name": "createInstance",
      "outputs": [
        {
          "name": "sufficient",
          "type": "bool"
        }
      ],
      "payable": false,
      "stateMutability": "nonpayable",
      "type": "function",
      "signature": "0x7848b098"
    },
    {
      "constant": false,
      "inputs": [
        {
          "name": "index",
          "type": "uint256"
        },
        {
          "name": "iipaddr",
          "type": "string"
        },
        {
          "name": "token",
          "type": "string"
        }
      ],
      "name": "acceptInstance",
      "outputs": [],
      "payable": false,
      "stateMutability": "nonpayable",
      "type": "function",
      "signature": "0x4bf14f9c"
    },
    {
      "constant": true,
      "inputs": [],
      "name": "getAllvmLen",
      "outputs": [
        {
          "name": "",
          "type": "uint256"
        }
      ],
      "payable": false,
      "stateMutability": "view",
      "type": "function",
      "signature": "0x0e81bbe2"
    },
    {
      "constant": true,
      "inputs": [
        {
          "name": "index",
          "type": "uint256"
        }
      ],
      "name": "getVm",
      "outputs": [
        {
          "name": "",
          "type": "string"
        },
        {
          "name": "",
          "type": "uint256"
        },
        {
          "name": "",
          "type": "uint256"
        },
        {
          "name": "",
          "type": "uint256"
        },
        {
          "name": "",
          "type": "uint256"
        },
        {
          "name": "",
          "type": "uint256"
        }
      ],
      "payable": false,
      "stateMutability": "view",
      "type": "function",
      "signature": "0x3effa4e9"
    },
    {
      "constant": true,
      "inputs": [
        {
          "name": "index",
          "type": "uint256"
        }
      ],
      "name": "accessVm",
      "outputs": [
        {
          "name": "",
          "type": "string"
        },
        {
          "name": "",
          "type": "string"
        }
      ],
      "payable": false,
      "stateMutability": "view",
      "type": "function",
      "signature": "0xfe44c3da"
    }
  ],
  "bytecode": "0x608060405234801561001057600080fd5b506000600181905550611131806100286000396000f300608060405260043610610078576000357c0100000000000000000000000000000000000000000000000000000000900463ffffffff1680630e81bbe21461007d5780632a6701b2146100a85780633effa4e9146102ba5780634bf14f9c146103835780637848b0981461043c578063fe44c3da146104ef575b600080fd5b34801561008957600080fd5b50610092610601565b6040518082815260200191505060405180910390f35b3480156100b457600080fd5b506100d36004803603810190808035906020019092919050505061060d565b604051808c815260200180602001806020018b73ffffffffffffffffffffffffffffffffffffffff1673ffffffffffffffffffffffffffffffffffffffff1681526020018a73ffffffffffffffffffffffffffffffffffffffff1673ffffffffffffffffffffffffffffffffffffffff168152602001891515151581526020018060200188815260200187815260200186815260200185815260200184810384528e818151815260200191508051906020019080838360005b838110156101a757808201518184015260208101905061018c565b50505050905090810190601f1680156101d45780820380516001836020036101000a031916815260200191505b5084810383528d818151815260200191508051906020019080838360005b8381101561020d5780820151818401526020810190506101f2565b50505050905090810190601f16801561023a5780820380516001836020036101000a031916815260200191505b50848103825289818151815260200191508051906020019080838360005b83811015610273578082015181840152602081019050610258565b50505050905090810190601f1680156102a05780820380516001836020036101000a031916815260200191505b509e50505050505050505050505050505060405180910390f35b3480156102c657600080fd5b506102e56004803603810190808035906020019092919050505061088b565b6040518080602001878152602001868152602001858152602001848152602001838152602001828103825288818151815260200191508051906020019080838360005b83811015610343578082015181840152602081019050610328565b50505050905090810190601f1680156103705780820380516001836020036101000a031916815260200191505b5097505050505050505060405180910390f35b34801561038f57600080fd5b5061043a60048036038101908080359060200190929190803590602001908201803590602001908080601f0160208091040260200160405190810160405280939291908181526020018383808284378201915050505050509192919290803590602001908201803590602001908080601f0160208091040260200160405190810160405280939291908181526020018383808284378201915050505050509192919290505050610a0a565b005b34801561044857600080fd5b506104d560048036038101908080359060200190929190803590602001908201803590602001908080601f016020809104026020016040519081016040528093929190818152602001838380828437820191505050505050919291929080359060200190929190803590602001909291908035906020019092919080359060200190929190505050610b11565b604051808215151515815260200191505060405180910390f35b3480156104fb57600080fd5b5061051a60048036038101908080359060200190929190505050610d71565b604051808060200180602001838103835285818151815260200191508051906020019080838360005b8381101561055e578082015181840152602081019050610543565b50505050905090810190601f16801561058b5780820380516001836020036101000a031916815260200191505b50838103825284818151815260200191508051906020019080838360005b838110156105c45780820151818401526020810190506105a9565b50505050905090810190601f1680156105f15780820380516001836020036101000a031916815260200191505b5094505050505060405180910390f35b60008080549050905090565b60008181548110151561061c57fe5b90600052602060002090600a0201600091509050806000015490806001018054600181600116156101000203166002900480601f0160208091040260200160405190810160405280929190818152602001828054600181600116156101000203166002900480156106ce5780601f106106a3576101008083540402835291602001916106ce565b820191906000526020600020905b8154815290600101906020018083116106b157829003601f168201915b505050505090806002018054600181600116156101000203166002900480601f01602080910402602001604051908101604052809291908181526020018280546001816001161561010002031660029004801561076c5780601f106107415761010080835404028352916020019161076c565b820191906000526020600020905b81548152906001019060200180831161074f57829003601f168201915b5050505050908060030160009054906101000a900473ffffffffffffffffffffffffffffffffffffffff16908060040160009054906101000a900473ffffffffffffffffffffffffffffffffffffffff16908060040160149054906101000a900460ff1690806005018054600181600116156101000203166002900480601f0160208091040260200160405190810160405280929190818152602001828054600181600116156101000203166002900480156108695780601f1061083e57610100808354040283529160200191610869565b820191906000526020600020905b81548152906001019060200180831161084c57829003601f168201915b505050505090806006015490806007015490806008015490806009015490508b565b6060600080600080600080878154811015156108a357fe5b90600052602060002090600a02016001016000888154811015156108c357fe5b90600052602060002090600a0201600601546000898154811015156108e457fe5b90600052602060002090600a02016007015460008a81548110151561090557fe5b90600052602060002090600a02016008015460008b81548110151561092657fe5b90600052602060002090600a02016009015460008c81548110151561094757fe5b90600052602060002090600a020160000154858054600181600116156101000203166002900480601f0160208091040260200160405190810160405280929190818152602001828054600181600116156101000203166002900480156109ee5780601f106109c3576101008083540402835291602001916109ee565b820191906000526020600020905b8154815290600101906020018083116109d157829003601f168201915b5050505050955095509550955095509550955091939550919395565b33600084815481101515610a1a57fe5b90600052602060002090600a020160040160006101000a81548173ffffffffffffffffffffffffffffffffffffffff021916908373ffffffffffffffffffffffffffffffffffffffff1602179055506001600084815481101515610a7a57fe5b90600052602060002090600a020160040160146101000a81548160ff02191690831515021790555081600084815481101515610ab257fe5b90600052602060002090600a02016005019080519060200190610ad6929190610fe0565b5080600084815481101515610ae757fe5b90600052602060002090600a02016002019080519060200190610b0b929190610fe0565b50505050565b600080610160604051908101604052808981526020018881526020016040805190810160405280600481526020017f6e756c6c0000000000000000000000000000000000000000000000000000000081525081526020013373ffffffffffffffffffffffffffffffffffffffff168152602001600073ffffffffffffffffffffffffffffffffffffffff1681526020016000151581526020016040805190810160405280600481526020017f6e756c6c000000000000000000000000000000000000000000000000000000008152508152602001878152602001868152602001858152602001848152509080600181540180825580915050906001820390600052602060002090600a020160009091929091909150600082015181600001556020820151816001019080519060200190610c4c929190611060565b506040820151816002019080519060200190610c69929190611060565b5060608201518160030160006101000a81548173ffffffffffffffffffffffffffffffffffffffff021916908373ffffffffffffffffffffffffffffffffffffffff16021790555060808201518160040160006101000a81548173ffffffffffffffffffffffffffffffffffffffff021916908373ffffffffffffffffffffffffffffffffffffffff16021790555060a08201518160040160146101000a81548160ff02191690831515021790555060c0820151816005019080519060200190610d34929190611060565b5060e08201518160060155610100820151816007015561012082015181600801556101408201518160090155505050600190509695505050505050565b6060803373ffffffffffffffffffffffffffffffffffffffff16600084815481101515610d9a57fe5b90600052602060002090600a020160030160009054906101000a900473ffffffffffffffffffffffffffffffffffffffff1673ffffffffffffffffffffffffffffffffffffffff16141515610e5e576040805190810160405280600581526020017f6572726f720000000000000000000000000000000000000000000000000000008152506040805190810160405280600581526020017f6572726f7200000000000000000000000000000000000000000000000000000081525091509150610fdb565b600083815481101515610e6d57fe5b90600052602060002090600a0201600501600084815481101515610e8d57fe5b90600052602060002090600a0201600201818054600181600116156101000203166002900480601f016020809104026020016040519081016040528092919081815260200182805460018160011615610100020316600290048015610f335780601f10610f0857610100808354040283529160200191610f33565b820191906000526020600020905b815481529060010190602001808311610f1657829003601f168201915b50505050509150808054600181600116156101000203166002900480601f016020809104026020016040519081016040528092919081815260200182805460018160011615610100020316600290048015610fcf5780601f10610fa457610100808354040283529160200191610fcf565b820191906000526020600020905b815481529060010190602001808311610fb257829003601f168201915b50505050509050915091505b915091565b828054600181600116156101000203166002900490600052602060002090601f016020900481019282601f1061102157805160ff191683800117855561104f565b8280016001018555821561104f579182015b8281111561104e578251825591602001919060010190611033565b5b50905061105c91906110e0565b5090565b828054600181600116156101000203166002900490600052602060002090601f016020900481019282601f106110a157805160ff19168380011785556110cf565b828001600101855582156110cf579182015b828111156110ce5782518255916020019190600101906110b3565b5b5090506110dc91906110e0565b5090565b61110291905b808211156110fe5760008160009055506001016110e6565b5090565b905600a165627a7a72305820dd64d871199e0b0831e7689dd8c3d7a1c421671d378402951ace8fe45979abde0029",
  "source": "pragma solidity ^0.4.24;\r\ncontract CloudCompute\r\n{\r\n\r\n    struct vmInstance\r\n    {\r\n        uint vmType;\r\n        string vmName;\r\n        string vmToken;\r\n        address vmUserAddr;\r\n        address vmRunnerAddr;\r\n        bool hadRun;\r\n        string ipAddr;\r\n        uint core;\r\n        uint ramsize;\r\n        uint vramsize;\r\n        uint vpower;\r\n    }\r\n\r\n    vmInstance[] public vmInstances;\r\n\r\n    uint len;\r\n\r\n    //mapping (address=>uint) vmPublish;\r\n\r\n    constructor () public\r\n    {\r\n        len = 0;\r\n    }\r\n\r\n    //event Issue(address account,uint amount);\r\n\r\n    function createInstance(\r\n        uint itype, \r\n        string memory iName,\r\n        uint icore,\r\n        uint iramsize,\r\n        uint ivramsize,\r\n        uint ivpower) public returns(bool sufficient)\r\n    {\r\n        vmInstances.push(vmInstance({\r\n            vmType:itype,\r\n            vmName:iName,\r\n            core:icore,\r\n            ramsize:iramsize,\r\n            vramsize:ivramsize,\r\n            vpower:ivpower,\r\n            vmToken:\"null\",\r\n            vmUserAddr:msg.sender,\r\n            vmRunnerAddr:address(0x00),\r\n            hadRun:false,\r\n            ipAddr: \"null\"  //20 default\r\n        }));\r\n        return true;\r\n    }\r\n    \r\n\r\n    function acceptInstance(uint index,string memory iipaddr,string memory token) public\r\n    {\r\n        vmInstances[index].vmRunnerAddr = msg.sender;\r\n        vmInstances[index].hadRun = true;\r\n        vmInstances[index].ipAddr = iipaddr;\r\n        vmInstances[index].vmToken = token;\r\n    }\r\n\r\n    function getAllvmLen() public view returns (uint)\r\n    {\r\n        return vmInstances.length;\r\n    }\r\n\r\n    function getVm(uint index)public view returns(\r\n        string memory,\r\n        uint,\r\n        uint,\r\n        uint,\r\n        uint,\r\n        uint) {\r\n        return(\r\n            vmInstances[index].vmName,\r\n            vmInstances[index].core,\r\n            vmInstances[index].ramsize,\r\n            vmInstances[index].vramsize,\r\n            vmInstances[index].vpower,\r\n            vmInstances[index].vmType);\r\n    }\r\n\r\n    function accessVm(uint index) public view returns(\r\n        string memory,string memory)\r\n    {\r\n        if(vmInstances[index].vmUserAddr != msg.sender) return (\"error\",\"error\");\r\n        return (vmInstances[index].ipAddr,vmInstances[index].vmToken);\r\n    }\r\n\r\n    \r\n}",
  "sourcePath": "C:/sync/GZCloud/BlockChain/test/contracts/project.sol",
  "compiler": {
    "name": "solc",
    "version": "0.4.24+commit.e67f0147.Emscripten.clang"
  },
  "schemaVersion": "3.0.0",
  "updatedAt": "2018-12-30T06:11:49.560Z",
  "devdoc": {
    "methods": {}
  },
  "userdoc": {
    "methods": {}
  }
}