{
  "contractName": "CloudCompute",
  "abi": [
    {
      "constant": true,
      "inputs": [
        {
          "name": "",
          "type": "uint256"
        }
      ],
      "name": "vmInstances",
      "outputs": [
        {
          "name": "vmType",
          "type": "uint256"
        },
        {
          "name": "vmName",
          "type": "string"
        },
        {
          "name": "vmToken",
          "type": "string"
        },
        {
          "name": "vmUserAddr",
          "type": "address"
        },
        {
          "name": "vmRunnerAddr",
          "type": "address"
        },
        {
          "name": "hadBegin",
          "type": "bool"
        },
        {
          "name": "hadEnd",
          "type": "bool"
        },
        {
          "name": "ipAddr",
          "type": "string"
        },
        {
          "name": "core",
          "type": "uint256"
        },
        {
          "name": "ramsize",
          "type": "uint256"
        },
        {
          "name": "vramsize",
          "type": "uint256"
        },
        {
          "name": "vpower",
          "type": "uint256"
        }
      ],
      "payable": false,
      "stateMutability": "view",
      "type": "function"
    },
    {
      "inputs": [],
      "payable": false,
      "stateMutability": "nonpayable",
      "type": "constructor"
    },
    {
      "constant": false,
      "inputs": [
        {
          "name": "itype",
          "type": "uint256"
        },
        {
          "name": "iName",
          "type": "string"
        },
        {
          "name": "icore",
          "type": "uint256"
        },
        {
          "name": "iramsize",
          "type": "uint256"
        },
        {
          "name": "ivramsize",
          "type": "uint256"
        },
        {
          "name": "ivpower",
          "type": "uint256"
        }
      ],
      "name": "createInstance",
      "outputs": [
        {
          "name": "sufficient",
          "type": "bool"
        }
      ],
      "payable": false,
      "stateMutability": "nonpayable",
      "type": "function"
    },
    {
      "constant": false,
      "inputs": [
        {
          "name": "index",
          "type": "uint256"
        },
        {
          "name": "iipaddr",
          "type": "string"
        },
        {
          "name": "token",
          "type": "string"
        }
      ],
      "name": "acceptInstance",
      "outputs": [],
      "payable": false,
      "stateMutability": "nonpayable",
      "type": "function"
    },
    {
      "constant": true,
      "inputs": [
        {
          "name": "index",
          "type": "uint256"
        }
      ],
      "name": "payment",
      "outputs": [
        {
          "name": "",
          "type": "address"
        },
        {
          "name": "",
          "type": "bool"
        }
      ],
      "payable": false,
      "stateMutability": "view",
      "type": "function"
    },
    {
      "constant": false,
      "inputs": [
        {
          "name": "index",
          "type": "uint256"
        }
      ],
      "name": "stopVm",
      "outputs": [],
      "payable": false,
      "stateMutability": "nonpayable",
      "type": "function"
    },
    {
      "constant": true,
      "inputs": [],
      "name": "getAllvmLen",
      "outputs": [
        {
          "name": "",
          "type": "uint256"
        }
      ],
      "payable": false,
      "stateMutability": "view",
      "type": "function"
    },
    {
      "constant": true,
      "inputs": [
        {
          "name": "index",
          "type": "uint256"
        }
      ],
      "name": "getVm",
      "outputs": [
        {
          "name": "",
          "type": "string"
        },
        {
          "name": "",
          "type": "uint256"
        },
        {
          "name": "",
          "type": "uint256"
        },
        {
          "name": "",
          "type": "uint256"
        },
        {
          "name": "",
          "type": "uint256"
        },
        {
          "name": "",
          "type": "uint256"
        },
        {
          "name": "",
          "type": "address"
        }
      ],
      "payable": false,
      "stateMutability": "view",
      "type": "function"
    },
    {
      "constant": true,
      "inputs": [
        {
          "name": "index",
          "type": "uint256"
        }
      ],
      "name": "checkStatus",
      "outputs": [
        {
          "name": "",
          "type": "bool"
        },
        {
          "name": "",
          "type": "bool"
        }
      ],
      "payable": false,
      "stateMutability": "view",
      "type": "function"
    },
    {
      "constant": true,
      "inputs": [
        {
          "name": "index",
          "type": "uint256"
        }
      ],
      "name": "accessVm",
      "outputs": [
        {
          "name": "",
          "type": "string"
        },
        {
          "name": "",
          "type": "string"
        }
      ],
      "payable": false,
      "stateMutability": "view",
      "type": "function"
    }
  ],
  "bytecode": "0x608060405234801561001057600080fd5b506000600181905550611509806100286000396000f300608060405260043610610099576000357c0100000000000000000000000000000000000000000000000000000000900463ffffffff1680630e81bbe21461009e5780632858c764146100c95780632a6701b2146101195780633effa4e9146103365780634bf14f9c146104325780637848b098146104eb5780638b3c99e31461059e5780638d1706e114610616578063fe44c3da14610643575b600080fd5b3480156100aa57600080fd5b506100b3610755565b6040518082815260200191505060405180910390f35b3480156100d557600080fd5b506100f460048036038101908080359060200190929190505050610761565b6040518083151515158152602001821515151581526020019250505060405180910390f35b34801561012557600080fd5b50610144600480360381019080803590602001909291905050506107c9565b604051808d815260200180602001806020018c73ffffffffffffffffffffffffffffffffffffffff1673ffffffffffffffffffffffffffffffffffffffff1681526020018b73ffffffffffffffffffffffffffffffffffffffff1673ffffffffffffffffffffffffffffffffffffffff1681526020018a151515158152602001891515151581526020018060200188815260200187815260200186815260200185815260200184810384528f818151815260200191508051906020019080838360005b83811015610222578082015181840152602081019050610207565b50505050905090810190601f16801561024f5780820380516001836020036101000a031916815260200191505b5084810383528e818151815260200191508051906020019080838360005b8381101561028857808201518184015260208101905061026d565b50505050905090810190601f1680156102b55780820380516001836020036101000a031916815260200191505b50848103825289818151815260200191508051906020019080838360005b838110156102ee5780820151818401526020810190506102d3565b50505050905090810190601f16801561031b5780820380516001836020036101000a031916815260200191505b509f5050505050505050505050505050505060405180910390f35b34801561034257600080fd5b5061036160048036038101908080359060200190929190505050610a5a565b60405180806020018881526020018781526020018681526020018581526020018481526020018373ffffffffffffffffffffffffffffffffffffffff1673ffffffffffffffffffffffffffffffffffffffff168152602001828103825289818151815260200191508051906020019080838360005b838110156103f15780820151818401526020810190506103d6565b50505050905090810190601f16801561041e5780820380516001836020036101000a031916815260200191505b509850505050505050505060405180910390f35b34801561043e57600080fd5b506104e960048036038101908080359060200190929190803590602001908201803590602001908080601f0160208091040260200160405190810160405280939291908181526020018383808284378201915050505050509192919290803590602001908201803590602001908080601f0160208091040260200160405190810160405280939291908181526020018383808284378201915050505050509192919290505050610c20565b005b3480156104f757600080fd5b5061058460048036038101908080359060200190929190803590602001908201803590602001908080601f016020809104026020016040519081016040528093929190818152602001838380828437820191505050505050919291929080359060200190929190803590602001909291908035906020019092919080359060200190929190505050610dd4565b604051808215151515815260200191505060405180910390f35b3480156105aa57600080fd5b506105c96004803603810190808035906020019092919050505061105e565b604051808373ffffffffffffffffffffffffffffffffffffffff1673ffffffffffffffffffffffffffffffffffffffff168152602001821515151581526020019250505060405180910390f35b34801561062257600080fd5b50610641600480360381019080803590602001909291905050506110d9565b005b34801561064f57600080fd5b5061066e60048036038101908080359060200190929190505050611149565b604051808060200180602001838103835285818151815260200191508051906020019080838360005b838110156106b2578082015181840152602081019050610697565b50505050905090810190601f1680156106df5780820380516001836020036101000a031916815260200191505b50838103825284818151815260200191508051906020019080838360005b838110156107185780820151818401526020810190506106fd565b50505050905090810190601f1680156107455780820380516001836020036101000a031916815260200191505b5094505050505060405180910390f35b60008080549050905090565b60008060008381548110151561077357fe5b90600052602060002090600a020160040160149054906101000a900460ff166000848154811015156107a157fe5b90600052602060002090600a020160040160159054906101000a900460ff1691509150915091565b6000818154811015156107d857fe5b90600052602060002090600a0201600091509050806000015490806001018054600181600116156101000203166002900480601f01602080910402602001604051908101604052809291908181526020018280546001816001161561010002031660029004801561088a5780601f1061085f5761010080835404028352916020019161088a565b820191906000526020600020905b81548152906001019060200180831161086d57829003601f168201915b505050505090806002018054600181600116156101000203166002900480601f0160208091040260200160405190810160405280929190818152602001828054600181600116156101000203166002900480156109285780601f106108fd57610100808354040283529160200191610928565b820191906000526020600020905b81548152906001019060200180831161090b57829003601f168201915b5050505050908060030160009054906101000a900473ffffffffffffffffffffffffffffffffffffffff16908060040160009054906101000a900473ffffffffffffffffffffffffffffffffffffffff16908060040160149054906101000a900460ff16908060040160159054906101000a900460ff1690806005018054600181600116156101000203166002900480601f016020809104026020016040519081016040528092919081815260200182805460018160011615610100020316600290048015610a385780601f10610a0d57610100808354040283529160200191610a38565b820191906000526020600020905b815481529060010190602001808311610a1b57829003601f168201915b505050505090806006015490806007015490806008015490806009015490508c565b6060600080600080600080600088815481101515610a7457fe5b90600052602060002090600a0201600101600089815481101515610a9457fe5b90600052602060002090600a02016006015460008a815481101515610ab557fe5b90600052602060002090600a02016007015460008b815481101515610ad657fe5b90600052602060002090600a02016008015460008c815481101515610af757fe5b90600052602060002090600a02016009015460008d815481101515610b1857fe5b90600052602060002090600a02016000015460008e815481101515610b3957fe5b90600052602060002090600a020160030160009054906101000a900473ffffffffffffffffffffffffffffffffffffffff16868054600181600116156101000203166002900480601f016020809104026020016040519081016040528092919081815260200182805460018160011615610100020316600290048015610c005780601f10610bd557610100808354040283529160200191610c00565b820191906000526020600020905b815481529060010190602001808311610be357829003601f168201915b505050505096509650965096509650965096509650919395979092949650565b600083815481101515610c2f57fe5b90600052602060002090600a020160040160149054906101000a900460ff16158015610cc757503373ffffffffffffffffffffffffffffffffffffffff16600084815481101515610c7c57fe5b90600052602060002090600a020160030160009054906101000a900473ffffffffffffffffffffffffffffffffffffffff1673ffffffffffffffffffffffffffffffffffffffff1614155b15610dcf5733600084815481101515610cdc57fe5b90600052602060002090600a020160040160006101000a81548173ffffffffffffffffffffffffffffffffffffffff021916908373ffffffffffffffffffffffffffffffffffffffff1602179055506001600084815481101515610d3c57fe5b90600052602060002090600a020160040160146101000a81548160ff02191690831515021790555081600084815481101515610d7457fe5b90600052602060002090600a02016005019080519060200190610d989291906113b8565b5080600084815481101515610da957fe5b90600052602060002090600a02016002019080519060200190610dcd9291906113b8565b505b505050565b600080610180604051908101604052808981526020018881526020016040805190810160405280600481526020017f6e756c6c0000000000000000000000000000000000000000000000000000000081525081526020013373ffffffffffffffffffffffffffffffffffffffff168152602001600073ffffffffffffffffffffffffffffffffffffffff1681526020016000151581526020016000151581526020016040805190810160405280600481526020017f6e756c6c000000000000000000000000000000000000000000000000000000008152508152602001878152602001868152602001858152602001848152509080600181540180825580915050906001820390600052602060002090600a020160009091929091909150600082015181600001556020820151816001019080519060200190610f18929190611438565b506040820151816002019080519060200190610f35929190611438565b5060608201518160030160006101000a81548173ffffffffffffffffffffffffffffffffffffffff021916908373ffffffffffffffffffffffffffffffffffffffff16021790555060808201518160040160006101000a81548173ffffffffffffffffffffffffffffffffffffffff021916908373ffffffffffffffffffffffffffffffffffffffff16021790555060a08201518160040160146101000a81548160ff02191690831515021790555060c08201518160040160156101000a81548160ff02191690831515021790555060e0820151816005019080519060200190611020929190611438565b506101008201518160060155610120820151816007015561014082015181600801556101608201518160090155505050600190509695505050505050565b60008060008381548110151561107057fe5b90600052602060002090600a020160040160009054906101000a900473ffffffffffffffffffffffffffffffffffffffff166000848154811015156110b157fe5b90600052602060002090600a020160040160149054906101000a900460ff1691509150915091565b6000818154811015156110e857fe5b90600052602060002090600a020160040160149054906101000a900460ff161561114657600160008281548110151561111d57fe5b90600052602060002090600a020160040160156101000a81548160ff0219169083151502179055505b50565b6060803373ffffffffffffffffffffffffffffffffffffffff1660008481548110151561117257fe5b90600052602060002090600a020160030160009054906101000a900473ffffffffffffffffffffffffffffffffffffffff1673ffffffffffffffffffffffffffffffffffffffff16141515611236576040805190810160405280600581526020017f6572726f720000000000000000000000000000000000000000000000000000008152506040805190810160405280600581526020017f6572726f72000000000000000000000000000000000000000000000000000000815250915091506113b3565b60008381548110151561124557fe5b90600052602060002090600a020160050160008481548110151561126557fe5b90600052602060002090600a0201600201818054600181600116156101000203166002900480601f01602080910402602001604051908101604052809291908181526020018280546001816001161561010002031660029004801561130b5780601f106112e05761010080835404028352916020019161130b565b820191906000526020600020905b8154815290600101906020018083116112ee57829003601f168201915b50505050509150808054600181600116156101000203166002900480601f0160208091040260200160405190810160405280929190818152602001828054600181600116156101000203166002900480156113a75780601f1061137c576101008083540402835291602001916113a7565b820191906000526020600020905b81548152906001019060200180831161138a57829003601f168201915b50505050509050915091505b915091565b828054600181600116156101000203166002900490600052602060002090601f016020900481019282601f106113f957805160ff1916838001178555611427565b82800160010185558215611427579182015b8281111561142657825182559160200191906001019061140b565b5b50905061143491906114b8565b5090565b828054600181600116156101000203166002900490600052602060002090601f016020900481019282601f1061147957805160ff19168380011785556114a7565b828001600101855582156114a7579182015b828111156114a657825182559160200191906001019061148b565b5b5090506114b491906114b8565b5090565b6114da91905b808211156114d65760008160009055506001016114be565b5090565b905600a165627a7a72305820b8faaca01e98591b9b100c64630a5253f294b5ba006f765b9a8954f63d9f76160029",
  "source": "pragma solidity ^0.4.24;\r\ncontract CloudCompute\r\n{\r\n\r\n    struct vmInstance\r\n    {\r\n        uint vmType;\r\n        string vmName;\r\n        string vmToken;\r\n        address vmUserAddr;\r\n        address vmRunnerAddr;\r\n        bool hadBegin;\r\n        bool hadEnd;\r\n        string ipAddr;\r\n        uint core;\r\n        uint ramsize;\r\n        uint vramsize;\r\n        uint vpower;\r\n    }\r\n\r\n    vmInstance[] public vmInstances;\r\n\r\n    uint len;\r\n\r\n    //mapping (address=>uint) vmPublish;\r\n\r\n    constructor () public\r\n    {\r\n        len = 0;\r\n    }\r\n\r\n    //event Issue(address account,uint amount);\r\n\r\n    function createInstance(\r\n        uint itype, \r\n        string memory iName,\r\n        uint icore,\r\n        uint iramsize,\r\n        uint ivramsize,\r\n        uint ivpower) public returns(bool sufficient)\r\n    {\r\n        vmInstances.push(vmInstance({\r\n            vmType:itype,\r\n            vmName:iName,\r\n            core:icore,\r\n            ramsize:iramsize,\r\n            vramsize:ivramsize,\r\n            vpower:ivpower,\r\n            vmToken:\"null\",\r\n            vmUserAddr:msg.sender,\r\n            vmRunnerAddr:address(0x00),\r\n            hadBegin:false,\r\n            hadEnd:false,\r\n            ipAddr: \"null\"  //20 default\r\n        }));\r\n        return true;\r\n    }\r\n    \r\n\r\n    function acceptInstance(uint index,string memory iipaddr,string memory token) public\r\n    {\r\n        if(!vmInstances[index].hadBegin&&vmInstances[index].vmUserAddr!=msg.sender)\r\n        {\r\n            vmInstances[index].vmRunnerAddr = msg.sender;\r\n            vmInstances[index].hadBegin = true;\r\n            vmInstances[index].ipAddr = iipaddr;\r\n            vmInstances[index].vmToken = token;\r\n        }\r\n    }\r\n\r\n    function payment(uint index) public view returns(address,bool)\r\n    {\r\n        return (vmInstances[index].vmRunnerAddr,vmInstances[index].hadBegin);\r\n    }\r\n    function stopVm(uint index) public  \r\n    {\r\n        if(vmInstances[index].hadBegin)\r\n            vmInstances[index].hadEnd = true;\r\n    }\r\n\r\n    function getAllvmLen() public view returns (uint)\r\n    {\r\n        return vmInstances.length;\r\n    }\r\n\r\n    function getVm(uint index)public view returns(\r\n        string memory,\r\n        uint,\r\n        uint,\r\n        uint,\r\n        uint,\r\n        uint,\r\n        address) {\r\n        return(\r\n            vmInstances[index].vmName,\r\n            vmInstances[index].core,\r\n            vmInstances[index].ramsize,\r\n            vmInstances[index].vramsize,\r\n            vmInstances[index].vpower,\r\n            vmInstances[index].vmType,\r\n            vmInstances[index].vmUserAddr);\r\n    }\r\n\r\n    function checkStatus(uint index) public view returns(bool,bool)\r\n    {\r\n        return (vmInstances[index].hadBegin,vmInstances[index].hadEnd);\r\n    }\r\n\r\n    function accessVm(uint index) public view returns(\r\n        string memory,string memory)\r\n    {\r\n        if(vmInstances[index].vmUserAddr != msg.sender) return (\"error\",\"error\");\r\n        return (vmInstances[index].ipAddr,vmInstances[index].vmToken);\r\n    }\r\n}",
  "sourcePath": "C:/sync/GZCloud/BlockChain/test/contracts/project.sol",
  "compiler": {
    "name": "solc",
    "version": "0.4.24+commit.e67f0147.Emscripten.clang"
  },
  "schemaVersion": "3.0.0",
  "updatedAt": "2018-12-31T12:40:17.713Z",
  "devdoc": {
    "methods": {}
  },
  "userdoc": {
    "methods": {}
  }
}