{
  "contractName": "CloudCompute",
  "abi": [
    {
      "constant": true,
      "inputs": [
        {
          "name": "",
          "type": "uint256"
        }
      ],
      "name": "vmInstances",
      "outputs": [
        {
          "name": "vmType",
          "type": "uint256"
        },
        {
          "name": "vmName",
          "type": "string"
        },
        {
          "name": "vmToken",
          "type": "string"
        },
        {
          "name": "vmUserAddr",
          "type": "address"
        },
        {
          "name": "vmRunnerAddr",
          "type": "address"
        },
        {
          "name": "hadRun",
          "type": "bool"
        },
        {
          "name": "ipAddr",
          "type": "string"
        },
        {
          "name": "core",
          "type": "uint256"
        },
        {
          "name": "ramsize",
          "type": "uint256"
        },
        {
          "name": "vramsize",
          "type": "uint256"
        },
        {
          "name": "vpower",
          "type": "uint256"
        }
      ],
      "payable": false,
      "stateMutability": "view",
      "type": "function",
      "signature": "0x2a6701b2"
    },
    {
      "inputs": [],
      "payable": false,
      "stateMutability": "nonpayable",
      "type": "constructor",
      "signature": "constructor"
    },
    {
      "constant": false,
      "inputs": [
        {
          "name": "itype",
          "type": "uint256"
        },
        {
          "name": "iName",
          "type": "string"
        },
        {
          "name": "icore",
          "type": "uint256"
        },
        {
          "name": "iramsize",
          "type": "uint256"
        },
        {
          "name": "ivramsize",
          "type": "uint256"
        },
        {
          "name": "ivpower",
          "type": "uint256"
        }
      ],
      "name": "createInstance",
      "outputs": [
        {
          "name": "sufficient",
          "type": "bool"
        }
      ],
      "payable": false,
      "stateMutability": "nonpayable",
      "type": "function",
      "signature": "0x7848b098"
    },
    {
      "constant": false,
      "inputs": [
        {
          "name": "index",
          "type": "uint256"
        },
        {
          "name": "iipaddr",
          "type": "string"
        },
        {
          "name": "token",
          "type": "string"
        }
      ],
      "name": "acceptInstance",
      "outputs": [],
      "payable": false,
      "stateMutability": "nonpayable",
      "type": "function",
      "signature": "0x4bf14f9c"
    },
    {
      "constant": true,
      "inputs": [],
      "name": "getAllvmLen",
      "outputs": [
        {
          "name": "",
          "type": "uint256"
        }
      ],
      "payable": false,
      "stateMutability": "view",
      "type": "function",
      "signature": "0x0e81bbe2"
    },
    {
      "constant": true,
      "inputs": [
        {
          "name": "index",
          "type": "uint256"
        }
      ],
      "name": "getVm",
      "outputs": [
        {
          "name": "",
          "type": "string"
        },
        {
          "name": "",
          "type": "uint256"
        },
        {
          "name": "",
          "type": "uint256"
        },
        {
          "name": "",
          "type": "uint256"
        },
        {
          "name": "",
          "type": "uint256"
        },
        {
          "name": "",
          "type": "uint256"
        },
        {
          "name": "",
          "type": "address"
        }
      ],
      "payable": false,
      "stateMutability": "view",
      "type": "function",
      "signature": "0x3effa4e9"
    },
    {
      "constant": true,
      "inputs": [
        {
          "name": "index",
          "type": "uint256"
        }
      ],
      "name": "checkStatus",
      "outputs": [
        {
          "name": "sufficient",
          "type": "bool"
        }
      ],
      "payable": false,
      "stateMutability": "view",
      "type": "function",
      "signature": "0x2858c764"
    },
    {
      "constant": true,
      "inputs": [
        {
          "name": "index",
          "type": "uint256"
        }
      ],
      "name": "accessVm",
      "outputs": [
        {
          "name": "",
          "type": "string"
        },
        {
          "name": "",
          "type": "string"
        }
      ],
      "payable": false,
      "stateMutability": "view",
      "type": "function",
      "signature": "0xfe44c3da"
    }
  ],
  "bytecode": "0x608060405234801561001057600080fd5b506000600181905550611231806100286000396000f300608060405260043610610083576000357c0100000000000000000000000000000000000000000000000000000000900463ffffffff1680630e81bbe2146100885780632858c764146100b35780632a6701b2146100f85780633effa4e91461030a5780634bf14f9c146104065780637848b098146104bf578063fe44c3da14610572575b600080fd5b34801561009457600080fd5b5061009d610684565b6040518082815260200191505060405180910390f35b3480156100bf57600080fd5b506100de60048036038101908080359060200190929190505050610690565b604051808215151515815260200191505060405180910390f35b34801561010457600080fd5b50610123600480360381019080803590602001909291905050506106c6565b604051808c815260200180602001806020018b73ffffffffffffffffffffffffffffffffffffffff1673ffffffffffffffffffffffffffffffffffffffff1681526020018a73ffffffffffffffffffffffffffffffffffffffff1673ffffffffffffffffffffffffffffffffffffffff168152602001891515151581526020018060200188815260200187815260200186815260200185815260200184810384528e818151815260200191508051906020019080838360005b838110156101f75780820151818401526020810190506101dc565b50505050905090810190601f1680156102245780820380516001836020036101000a031916815260200191505b5084810383528d818151815260200191508051906020019080838360005b8381101561025d578082015181840152602081019050610242565b50505050905090810190601f16801561028a5780820380516001836020036101000a031916815260200191505b50848103825289818151815260200191508051906020019080838360005b838110156102c35780820151818401526020810190506102a8565b50505050905090810190601f1680156102f05780820380516001836020036101000a031916815260200191505b509e50505050505050505050505050505060405180910390f35b34801561031657600080fd5b5061033560048036038101908080359060200190929190505050610944565b60405180806020018881526020018781526020018681526020018581526020018481526020018373ffffffffffffffffffffffffffffffffffffffff1673ffffffffffffffffffffffffffffffffffffffff168152602001828103825289818151815260200191508051906020019080838360005b838110156103c55780820151818401526020810190506103aa565b50505050905090810190601f1680156103f25780820380516001836020036101000a031916815260200191505b509850505050505050505060405180910390f35b34801561041257600080fd5b506104bd60048036038101908080359060200190929190803590602001908201803590602001908080601f0160208091040260200160405190810160405280939291908181526020018383808284378201915050505050509192919290803590602001908201803590602001908080601f0160208091040260200160405190810160405280939291908181526020018383808284378201915050505050509192919290505050610b0a565b005b3480156104cb57600080fd5b5061055860048036038101908080359060200190929190803590602001908201803590602001908080601f016020809104026020016040519081016040528093929190818152602001838380828437820191505050505050919291929080359060200190929190803590602001909291908035906020019092919080359060200190929190505050610c11565b604051808215151515815260200191505060405180910390f35b34801561057e57600080fd5b5061059d60048036038101908080359060200190929190505050610e71565b604051808060200180602001838103835285818151815260200191508051906020019080838360005b838110156105e15780820151818401526020810190506105c6565b50505050905090810190601f16801561060e5780820380516001836020036101000a031916815260200191505b50838103825284818151815260200191508051906020019080838360005b8381101561064757808201518184015260208101905061062c565b50505050905090810190601f1680156106745780820380516001836020036101000a031916815260200191505b5094505050505060405180910390f35b60008080549050905090565b600080828154811015156106a057fe5b90600052602060002090600a020160040160149054906101000a900460ff169050919050565b6000818154811015156106d557fe5b90600052602060002090600a0201600091509050806000015490806001018054600181600116156101000203166002900480601f0160208091040260200160405190810160405280929190818152602001828054600181600116156101000203166002900480156107875780601f1061075c57610100808354040283529160200191610787565b820191906000526020600020905b81548152906001019060200180831161076a57829003601f168201915b505050505090806002018054600181600116156101000203166002900480601f0160208091040260200160405190810160405280929190818152602001828054600181600116156101000203166002900480156108255780601f106107fa57610100808354040283529160200191610825565b820191906000526020600020905b81548152906001019060200180831161080857829003601f168201915b5050505050908060030160009054906101000a900473ffffffffffffffffffffffffffffffffffffffff16908060040160009054906101000a900473ffffffffffffffffffffffffffffffffffffffff16908060040160149054906101000a900460ff1690806005018054600181600116156101000203166002900480601f0160208091040260200160405190810160405280929190818152602001828054600181600116156101000203166002900480156109225780601f106108f757610100808354040283529160200191610922565b820191906000526020600020905b81548152906001019060200180831161090557829003601f168201915b505050505090806006015490806007015490806008015490806009015490508b565b606060008060008060008060008881548110151561095e57fe5b90600052602060002090600a020160010160008981548110151561097e57fe5b90600052602060002090600a02016006015460008a81548110151561099f57fe5b90600052602060002090600a02016007015460008b8154811015156109c057fe5b90600052602060002090600a02016008015460008c8154811015156109e157fe5b90600052602060002090600a02016009015460008d815481101515610a0257fe5b90600052602060002090600a02016000015460008e815481101515610a2357fe5b90600052602060002090600a020160030160009054906101000a900473ffffffffffffffffffffffffffffffffffffffff16868054600181600116156101000203166002900480601f016020809104026020016040519081016040528092919081815260200182805460018160011615610100020316600290048015610aea5780601f10610abf57610100808354040283529160200191610aea565b820191906000526020600020905b815481529060010190602001808311610acd57829003601f168201915b505050505096509650965096509650965096509650919395979092949650565b33600084815481101515610b1a57fe5b90600052602060002090600a020160040160006101000a81548173ffffffffffffffffffffffffffffffffffffffff021916908373ffffffffffffffffffffffffffffffffffffffff1602179055506001600084815481101515610b7a57fe5b90600052602060002090600a020160040160146101000a81548160ff02191690831515021790555081600084815481101515610bb257fe5b90600052602060002090600a02016005019080519060200190610bd69291906110e0565b5080600084815481101515610be757fe5b90600052602060002090600a02016002019080519060200190610c0b9291906110e0565b50505050565b600080610160604051908101604052808981526020018881526020016040805190810160405280600481526020017f6e756c6c0000000000000000000000000000000000000000000000000000000081525081526020013373ffffffffffffffffffffffffffffffffffffffff168152602001600073ffffffffffffffffffffffffffffffffffffffff1681526020016000151581526020016040805190810160405280600481526020017f6e756c6c000000000000000000000000000000000000000000000000000000008152508152602001878152602001868152602001858152602001848152509080600181540180825580915050906001820390600052602060002090600a020160009091929091909150600082015181600001556020820151816001019080519060200190610d4c929190611160565b506040820151816002019080519060200190610d69929190611160565b5060608201518160030160006101000a81548173ffffffffffffffffffffffffffffffffffffffff021916908373ffffffffffffffffffffffffffffffffffffffff16021790555060808201518160040160006101000a81548173ffffffffffffffffffffffffffffffffffffffff021916908373ffffffffffffffffffffffffffffffffffffffff16021790555060a08201518160040160146101000a81548160ff02191690831515021790555060c0820151816005019080519060200190610e34929190611160565b5060e08201518160060155610100820151816007015561012082015181600801556101408201518160090155505050600190509695505050505050565b6060803373ffffffffffffffffffffffffffffffffffffffff16600084815481101515610e9a57fe5b90600052602060002090600a020160030160009054906101000a900473ffffffffffffffffffffffffffffffffffffffff1673ffffffffffffffffffffffffffffffffffffffff16141515610f5e576040805190810160405280600581526020017f6572726f720000000000000000000000000000000000000000000000000000008152506040805190810160405280600581526020017f6572726f72000000000000000000000000000000000000000000000000000000815250915091506110db565b600083815481101515610f6d57fe5b90600052602060002090600a0201600501600084815481101515610f8d57fe5b90600052602060002090600a0201600201818054600181600116156101000203166002900480601f0160208091040260200160405190810160405280929190818152602001828054600181600116156101000203166002900480156110335780601f1061100857610100808354040283529160200191611033565b820191906000526020600020905b81548152906001019060200180831161101657829003601f168201915b50505050509150808054600181600116156101000203166002900480601f0160208091040260200160405190810160405280929190818152602001828054600181600116156101000203166002900480156110cf5780601f106110a4576101008083540402835291602001916110cf565b820191906000526020600020905b8154815290600101906020018083116110b257829003601f168201915b50505050509050915091505b915091565b828054600181600116156101000203166002900490600052602060002090601f016020900481019282601f1061112157805160ff191683800117855561114f565b8280016001018555821561114f579182015b8281111561114e578251825591602001919060010190611133565b5b50905061115c91906111e0565b5090565b828054600181600116156101000203166002900490600052602060002090601f016020900481019282601f106111a157805160ff19168380011785556111cf565b828001600101855582156111cf579182015b828111156111ce5782518255916020019190600101906111b3565b5b5090506111dc91906111e0565b5090565b61120291905b808211156111fe5760008160009055506001016111e6565b5090565b905600a165627a7a72305820ce27b291f11ee3278349779951f8de0dd17036f2264012af6bbccd7bdb14c9b00029",
  "source": "pragma solidity ^0.4.24;\r\ncontract CloudCompute\r\n{\r\n\r\n    struct vmInstance\r\n    {\r\n        uint vmType;\r\n        string vmName;\r\n        string vmToken;\r\n        address vmUserAddr;\r\n        address vmRunnerAddr;\r\n        bool hadRun;\r\n        string ipAddr;\r\n        uint core;\r\n        uint ramsize;\r\n        uint vramsize;\r\n        uint vpower;\r\n    }\r\n\r\n    vmInstance[] public vmInstances;\r\n\r\n    uint len;\r\n\r\n    //mapping (address=>uint) vmPublish;\r\n\r\n    constructor () public\r\n    {\r\n        len = 0;\r\n    }\r\n\r\n    //event Issue(address account,uint amount);\r\n\r\n    function createInstance(\r\n        uint itype, \r\n        string memory iName,\r\n        uint icore,\r\n        uint iramsize,\r\n        uint ivramsize,\r\n        uint ivpower) public returns(bool sufficient)\r\n    {\r\n        vmInstances.push(vmInstance({\r\n            vmType:itype,\r\n            vmName:iName,\r\n            core:icore,\r\n            ramsize:iramsize,\r\n            vramsize:ivramsize,\r\n            vpower:ivpower,\r\n            vmToken:\"null\",\r\n            vmUserAddr:msg.sender,\r\n            vmRunnerAddr:address(0x00),\r\n            hadRun:false,\r\n            ipAddr: \"null\"  //20 default\r\n        }));\r\n        return true;\r\n    }\r\n    \r\n\r\n    function acceptInstance(uint index,string memory iipaddr,string memory token) public\r\n    {\r\n        vmInstances[index].vmRunnerAddr = msg.sender;\r\n        vmInstances[index].hadRun = true;\r\n        vmInstances[index].ipAddr = iipaddr;\r\n        vmInstances[index].vmToken = token;\r\n    }\r\n\r\n    function getAllvmLen() public view returns (uint)\r\n    {\r\n        return vmInstances.length;\r\n    }\r\n\r\n    function getVm(uint index)public view returns(\r\n        string memory,\r\n        uint,\r\n        uint,\r\n        uint,\r\n        uint,\r\n        uint,\r\n        address) {\r\n        return(\r\n            vmInstances[index].vmName,\r\n            vmInstances[index].core,\r\n            vmInstances[index].ramsize,\r\n            vmInstances[index].vramsize,\r\n            vmInstances[index].vpower,\r\n            vmInstances[index].vmType,\r\n            vmInstances[index].vmUserAddr);\r\n    }\r\n\r\n    function checkStatus(uint index) public view returns(bool sufficient)\r\n    {\r\n        return vmInstances[index].hadRun;\r\n    }\r\n\r\n    function accessVm(uint index) public view returns(\r\n        string memory,string memory)\r\n    {\r\n        if(vmInstances[index].vmUserAddr != msg.sender) return (\"error\",\"error\");\r\n        return (vmInstances[index].ipAddr,vmInstances[index].vmToken);\r\n    }\r\n\r\n    \r\n}",
  "sourcePath": "C:/sync/GZCloud/BlockChain/test/contracts/project.sol",
  "compiler": {
    "name": "solc",
    "version": "0.4.24+commit.e67f0147.Emscripten.clang"
  },
  "schemaVersion": "3.0.0",
  "updatedAt": "2018-12-30T09:00:19.808Z",
  "devdoc": {
    "methods": {}
  },
  "userdoc": {
    "methods": {}
  }
}